S0110000424149315F4750494F2E7372656388
S11300000C942A000C9447000C9447000C9447006D
S11300100C94580E0C9447000C9447000C94470021
S11300200C9447000C941F0E0C940C0E0C94470077
S11300300C9447000C9447000C9447000C94470020
S11300400C9447000C9447000C9447000C94470010
S11300500C94470011241FBECFE5D4E0DEBFCDBF12
S113006010E0A0E6B0E0E2E5FFE202C005900D92E8
S1130070AC3CB107D9F720E0ACECB0E001C01D9274
S1130080A23FB207E1F70E948F080C94A7170C94C3
S11300900000CF93DF931F92CDB7DEB789830E9410
S11300A02C0D8EE40E94520D89810E94800D0E94C5
S11300B0AA0D00000F90DF91CF9108950F931F9325
S11300C0CF93DF93CDB7DEB7C258D1090FB6F894FA
S11300D0DEBF0FBECDBF9E012E573F4FF901808377
S11300E019828091CC008F708093CC00CE018E5702
S11300F09F4FFC018081807F89839091CC0089810E
S1130100892B8093CC008091CC0084608093CC00B8
S11301108091CC000E94490080E090E0A0E8BFE319
S11301208A839B83AC83BD838E010A591F4F2BEABC
S11301303AEA4AEA5EE36A817B818C819D810E946E
S11301405014DC01CB01F80180839183A283B38333
S11301508E0106591F4F20E030E040E85EE36A81DB
S11301607B818C819D810E945014DC01CB01F801BC
S113017080839183A283B383CE018A599F4F20E069
S113018030E040E85FE3FC0160817181828193810A
S11301900E94EC1288233CF4CE0182599F4F21E047
S11301A0FC0120832CC1CE0186599F4F20E03FEFF4
S11301B04FE757E4FC0160817181828193810E9441
S11301C04B1418160CF0CDC020E030E04AE754E49C
S11301D06A817B818C819D810E94F112DC01CB01BB
S11301E09E0121593F4FF90180839183A283B383F8
S11301F08E010D581F4FCE0181599F4F20E030E0F2
S11302004AE753E4FC0160817181828193810E94F9
S11302105014DC01CB01F80180839183A283B38362
S1130220CE018D589F4F20E030E040E85FE3FC01B1
S113023060817181828193810E94EC1288234CF445
S1130240CE0189589F4F21E030E0FC0131832083A7
S11302506DC0CE018D589F4F20E03FEF4FE757E42C
S1130260FC0160817181828193810E944B14181674
S11302700CF04AC0CE0181599F4F20E030E040E2AB
S113028051E4FC0160817181828193810E94501448
S1130290DC01CB018E0109581F4FBC01CD010E9426
S11302A06A13DC01CB01F80191838083CE01895864
S11302B09F4FFC0180819181892B09F4A0C0CE015C
S11302C087589F4F29E130E0FC0131832083CE0120
S11302D087589F4FFC01808191810197F1F79E011E
S11302E027583F4FF90191838083CE0189589F4F4E
S11302F09E0129583F4FF901208131812150310954
S1130300FC0131832083D2CF8E0109581F4FCE01C7
S11303108D589F4FFC0160817181828193810E947D
S11303206A13DC01CB01F80191838083CE018558E7
S11303309F4F9E0129583F4FF90120813181FC01D3
S113034031832083CE0185589F4FFC0180819181A8
S11303500197F1F79E0125583F4FF901918380835E
S11303604EC0CE018A599F4F20E030E04FE753E45E
S1130370FC0160817181828193810E944B14181663
S11303806CF58E0103581F4FCE0186599F4FFC0117
S113039060817181828193810E946A13DC01CB01A7
S11303A0F80191838083CE0181589F4F9E01235889
S11303B03F4FF90120813181FC0131832083CE013B
S11303C081589F4FFC01808191810197F1F79E0133
S11303D021583F4FF9019183808328C08E0102592F
S11303E01F4FCE018A599F4FFC0160817181828128
S11303F093810E946A13DC01CB01F8018083CE0152
S11304008F579F4F9E0122593F4FF9012081FC01D4
S11304102083CE018F579F4FFC018081282F2A957E
S1130420F1F7CE018F579F4FFC0120838091CC00C0
S11304308B7F8093CC008091CC000E94490080E0A7
S113044090E0A0E8BFE38E839F83A887B9878E01DD
S1130450065B1F4F2BEA3AEA4AEA5EE36E817F812C
S1130460888599850E945014DC01CB01F8018083B2
S11304709183A283B3838E01025B1F4F20E030E09F
S113048040E85EE36E817F81888599850E945014DF
S1130490DC01CB01F80180839183A283B383CE0175
S11304A0865B9F4F20E030E040E85FE3FC01608121
S11304B07181828193810E94EC1288233CF4CE01E5
S11304C08E5A9F4F21E0FC0120832CC1CE01825B18
S11304D09F4F20E03FEF4FE757E4FC0160817181BB
S11304E0828193810E944B1418160CF0CDC020E039
S11304F030E04AE754E46E817F81888599850E94C3
S1130500F112DC01CB019E012D5A3F4FF90180838A
S11305109183A283B3838E01095A1F4FCE018D5A52
S11305209F4F20E030E04AE753E4FC016081718191
S1130530828193810E945014DC01CB01F8018083F5
S11305409183A283B383CE01895A9F4F20E030E088
S113055040E85FE3FC0160817181828193810E94A4
S1130560EC1288234CF4CE01855A9F4F21E030E0F1
S1130570FC01318320836DC0CE01895A9F4F20E056
S11305803FEF4FE757E4FC016081718182819381E1
S11305900E944B1418160CF04AC0CE018D5A9F4F7E
S11305A020E030E040E251E4FC016081718182810D
S11305B093810E945014DC01CB018E01055A1F4F18
S11305C0BC01CD010E946A13DC01CB01F8019183C7
S11305D08083CE01855A9F4FFC0180819181892BB4
S11305E009F4A0C0CE01835A9F4F29E130E0FC01F9
S11305F031832083CE01835A9F4FFC0180819181F6
S11306000197F1F79E01235A3F4FF90191838083AB
S1130610CE01855A9F4F9E01255A3F4FF9012081F3
S1130620318121503109FC0131832083D2CF8E01E5
S1130630055A1F4FCE01895A9F4FFC016081718179
S1130640828193810E946A13DC01CB01F8019183BA
S11306508083CE01815A9F4F9E01255A3F4FF90155
S113066020813181FC0131832083CE01815A9F4F47
S1130670FC01808191810197F1F79E01215A3F4F3E
S1130680F901918380834EC0CE01865B9F4F20E0A9
S113069030E04FE753E4FC016081718182819381F2
S11306A00E944B1418166CF58E010F591F4FCE0182
S11306B0825B9F4FFC0160817181828193810E94E2
S11306C06A13DC01CB01F80191838083CE018D593B
S11306D09F4F9E012F593F4FF90120813181FC0129
S11306E031832083CE018D599F4FFC0180819181FC
S11306F00197F1F79E012D593F4FF90191838083B2
S113070028C08E010E5A1F4FCE01865B9F4FFC01FD
S113071060817181828193810E946A13DC01CB0123
S1130720F8018083CE018B599F4F9E012E5A3F4F73
S1130730F9012081FC012083CE018B599F4FFC01DC
S11307408081282F2A95F1F7CE018B599F4FFC0108
S11307502083CE018E579F4FFC018081882F90E02B
S113076082959295907F9827807F9827898380919E
S1130770CC008F708093CC009091CC008981892B20
S11307808093CC008091CC0084608093CC008091D5
S1130790CC000E94490080E090E0A0E8BFE38A8793
S11307A09B87AC87BD872BEA3AEA4AEA5EE36A850F
S11307B07B858C859D850E945014DC01CB018EA71E
S11307C09FA7A8ABB9AB20E030E040E85EE36A85C0
S11307D07B858C859D850E945014DC01CB018AABFE
S11307E09BABACABBDAB20E030E040E85FE36EA573
S11307F07FA588A999A90E94EC1288231CF481E0A2
S11308008EABF9C020E03FEF4FE757E46AA97BA91C
S11308108CA99DA90E944B1418160CF0AEC020E0C0
S113082030E04AE754E46A857B858C859D850E9487
S1130830F112DC01CB018FAB98AFA9AFBAAF20E0C6
S113084030E04AE753E46FA978AD89AD9AAD0E94D0
S11308505014DC01CB018BAF9CAFADAFBEAF20E039
S113086030E040E85FE36BAD7CAD8DAD9EAD0E94A2
S1130870EC12882344F421E030E0CE01CF96FC0151
S1130880318320835FC020E03FEF4FE757E46BAD37
S11308907CAD8DAD9EAD0E944B1418160CF044C077
S11308A020E030E040E251E46FA978AD89AD9AAD23
S11308B00E945014DC01CB01BC01CD010E946A13DB
S11308C0DC01CB019E01215C3F4FF90191838083C0
S11308D0CE01CF96FC0180819181892B09F48BC0D4
S11308E0CE018F5B9F4F29E130E0FC0131832083EF
S11308F0CE018F5B9F4FFC01808191810197F1F7BD
S11309009E012F5B3F4FF90191838083CE01CF96E7
S1130910FC01808191819C0121503109CE01CF9647
S1130920FC0131832083D4CF6BAD7CAD8DAD9EAD06
S11309300E946A13DC01CB019E01215C3F4FF90147
S113094091838083CE018D5B9F4F9E01215C3F4F3D
S1130950F90120813181FC0131832083CE018D5B3B
S11309609F4FFC01808191810197F1F79E012D5BDE
S11309703F4FF901918380833EC020E030E04FE790
S113098053E46EA57FA588A999A90E944B14181653
S11309904CF58E010B5B1F4F6AA97BA98CA99DA9FD
S11309A00E946A13DC01CB01F80191838083CE019C
S11309B0895B9F4F9E012B5B3F4FF9012081318161
S11309C0FC0131832083CE01895B9F4FFC01808130
S11309D091810197F1F79E01295B3F4FF9019183C2
S11309E080831CC06EA57FA588A999A90E946A135B
S11309F0DC01CB018EABCE01875B9F4F2EA9FC019E
S1130A002083CE01875B9F4FFC018081282F2A958C
S1130A10F1F7CE01875B9F4FFC0120838091CC00CE
S1130A208B7F8093CC008091CC000E94490080E0B1
S1130A3090E0A0E8BFE38E879F87A88BB98B2BEA51
S1130A403AEA4AEA5EE36E857F85888999890E943D
S1130A505014DC01CB018A8B9B8BAC8BBD8B20E0CB
S1130A6030E040E85EE36E857F85888999890E943D
S1130A705014DC01CB018E8B9F8BA88FB98F20E0A3
S1130A8030E040E85FE36A897B898C899D890E9414
S1130A90EC1288231CF481E08A8FB2C020E03FEF7F
S1130AA04FE757E46E897F89888D998D0E944B1496
S1130AB018160CF07BC020E030E04AE754E46E8561
S1130AC07F85888999890E94F112DC01CB018B8F83
S1130AD09C8FAD8FBE8F20E030E04AE753E46B8DEE
S1130AE07C8D8D8D9E8D0E945014DC01CB018F8FE7
S1130AF098A3A9A3BAA320E030E040E85FE36F8D98
S1130B0078A189A19AA10E94EC1288232CF481E097
S1130B1090E09CA38BA33FC020E03FEF4FE757E456
S1130B206F8D78A189A19AA10E944B1418164CF5D7
S1130B3020E030E040E251E46B8D7C8D8D8D9E8D04
S1130B400E945014DC01CB01BC01CD010E946A1348
S1130B50DC01CB019CA38BA38BA19CA1892B09F461
S1130B604FC089E190E09EA38DA38DA19EA1019722
S1130B70F1F79EA38DA38BA19CA101979CA38BA3AA
S1130B80EBCF6F8D78A189A19AA10E946A13DC0131
S1130B90CB019CA38BA38BA19CA198A78FA38FA10E
S1130BA098A50197F1F798A78FA32AC020E030E019
S1130BB04FE753E46A897B898C899D890E944B1491
S1130BC01816ACF46E897F89888D998D0E946A13FA
S1130BD0DC01CB019AA789A789A59AA59CA78BA715
S1130BE08BA59CA50197F1F79CA78BA70FC06A89D9
S1130BF07B898C899D890E946A13DC01CB018A8FD1
S1130C008A8D8DA78DA58A95F1F78DA70000CE5703
S1130C10DF4F0FB6F894DEBF0FBECDBFDF91CF918B
S1130C201F910F910895CF93DF931F92CDB7DEB735
S1130C30898388E08093CC008091CC008E7F809360
S1130C40CC008091CC000E94490089810E945E0002
S1130C5000000F90DF91CF910895CF93DF931F92FF
S1130C60CDB7DEB789838091CC0089608093CC00B6
S1130C708091CC000E94490089810E945E0000009E
S1130C800F90DF91CF910895CF93DF9300D0CDB72C
S1130C90DEB79A83898389819A81FC0180818823C4
S1130CA061F089819A819C012F5F3F4F3A832983A8
S1130CB0FC0180810E942D06EECF00000F900F9062
S1130CC0DF91CF910895CF93DF93CDB7DEB781E065
S1130CD00E9413060000DF91CF910895CF93DF9314
S1130CE0CDB7DEB7AE970FB6F894DEBF0FBECDBF5B
S1130CF084E08093CC008091CC000E94490080E085
S1130D0090E0A8ECB1E489839A83AB83BC832BEA9B
S1130D103AEA4AEA5EE369817A818B819C810E9486
S1130D205014DC01CB018B8B9C8BAD8BBE8B20E0F4
S1130D3030E040E85EE369817A818B819C810E9486
S1130D405014DC01CB018F8B988FA98FBA8F20E0D0
S1130D5030E040E85FE36B897C898D899E890E943D
S1130D60EC1288231CF481E08B8FB2C020E03FEFAB
S1130D704FE757E46F89788D898D9A8D0E944B14C3
S1130D8018160CF07BC020E030E04AE754E4698197
S1130D907A818B819C810E94F112DC01CB018C8FC2
S1130DA09D8FAE8FBF8F20E030E04AE753E46C8D17
S1130DB07D8D8E8D9F8D0E945014DC01CB0188A304
S1130DC099A3AAA3BBA320E030E040E85FE368A1B5
S1130DD079A18AA19BA10E94EC1288232CF481E0C2
S1130DE090E09DA38CA33FC020E03FEF4FE757E482
S1130DF068A179A18AA19BA10E944B1418164CF5F5
S1130E0020E030E040E251E46C8D7D8D8E8D9F8D2D
S1130E100E945014DC01CB01BC01CD010E946A1375
S1130E20DC01CB019DA38CA38CA19DA1892B09F48A
S1130E304FC089E190E09FA38EA38EA19FA101974B
S1130E40F1F79FA38EA38CA19DA101979DA38CA3D1
S1130E50EBCF68A179A18AA19BA10E946A13DC014E
S1130E60CB019DA38CA38CA19DA199A788A788A53C
S1130E7099A50197F1F799A788A72AC020E030E047
S1130E804FE753E46B897C898D899E890E944B14BA
S1130E901816ACF46F89788D898D9A8D0E946A1327
S1130EA0DC01CB019BA78AA78AA59BA59DA78CA73C
S1130EB08CA59DA50197F1F79DA78CA70FC06B8901
S1130EC07C898D899E890E946A13DC01CB018B8FFA
S1130ED08B8D8EA78EA58A95F1F78EA783E00E944D
S1130EE0130683E00E94130683E00E94130682E047
S1130EF00E94130688E20E9413068FE00E941306E4
S1130F0081E00E94130686E00E94130680E80E9496
S1130F10130680E090E0A0E8BFE38D839E83AF8357
S1130F20B88720E030E04AE753E46D817E818F8109
S1130F3098850E945014DC01CB0189879A87AB877E
S1130F40BC8720E030E040E85FE369857A858B85E3
S1130F509C850E94EC1288232CF481E090E09E870B
S1130F608D873EC020E03FEF4FE757E469857A85DF
S1130F708B859C850E944B14181644F520E030E0C4
S1130F8040E251E46D817E818F8198850E945014E6
S1130F90DC01CB01BC01CD010E946A13DC01CB0151
S1130FA09E878D878D859E85892B21F189E190E02F
S1130FB0988B8F878F8598890197F1F7988B8F8706
S1130FC08D859E8501979E878D87ECCF69857A856F
S1130FD08B859C850E946A13DC01CB019E878D87DB
S1130FE08D859E859A8B898B89899A890197F1F7DA
S1130FF09A8B898B0E94630680E80E941306000086
S1131000AE960FB6F894DEBF0FBECDBFDF91CF9181
S11310100895CF93DF9300D000D000D0CDB7DEB7D2
S11310206B837C838D839E8320E030E040EA50E430
S11310306B817C818D819E810E944B1418161CF457
S113104088EE93E031C020E030E040E85FE36B815C
S11310507C818D819E810E94EC1288231CF480E0A7
S113106090E022C01A82198220E030E04AE754E47A
S11310706B817C818D819E810E945014DC01CB01A7
S113108020E030E040EA50E4BC01CD010E94F112BE
S1131090DC01CB01BC01CD010E946313DC01CB0157
S11310A09A83898389819A8126960FB6F894DEBF44
S11310B00FBECDBFDF91CF910895CF93DF9300D0C2
S11310C000D000D0CDB7DEB76B837C838D839E8345
S11310D020E030E040EA50E46B817C818D819E8188
S11310E00E947F12DC01CB01BC01CD010E9463137D
S11310F0DC01CB019A83898389819A8118161906A8
S11311001CF080E090E002C089819A8126960FB697
S1131110F894DEBF0FBECDBFDF91CF9108950F933A
S11311201F93CF93DF93CDB7DEB768970FB6F894CC
S1131130DEBF0FBECDBF20916100309162004091AF
S11311406300509164008091650090916600A091C5
S11311506700B091680060916000E62F89019A01F0
S1131160AC01BD018E2F0E942E120E945B100E94C2
S1131170E80B0E946E068CE00E9413060E946B101E
S113118081E00E94130680E80E9413068091EE001D
S11311909091EF00A091F000B091F100BC01CD015D
S11311A00E945D08292F2F938F9389E690E0892F61
S11311B08F9389E690E08F9387ED90E0892F8F934A
S11311C087ED90E08F930E94BD140F900F900F90C5
S11311D00F900F900F9087ED90E00E9444060E94BC
S11311E0CF10DC01CB0189839A83AB83BC830E943B
S11311F09A11DC01CB01B05820E030E040EC51E41E
S1131200BC01CD010E947F12DC01CB018D839E8342
S1131210AF83B8878D819E81AF81B885BC01CD0134
S11312200E9409089A87898780EC0E9413068A85A0
S11312308F9389858F938FE690E0892F8F938FE624
S113124090E08F938DEC90E0892F8F938DEC90E05C
S11312508F930E94BD140F900F900F900F900F90DA
S11312600F908DEC90E00E94440680E090E8ABE3A0
S1131270B5E48B879C87AD87BE8720E030E04AE7E2
S113128053E46B857C858D859E850E945014DC011A
S1131290CB018F87988BA98BBA8B20E030E040E894
S11312A05FE36F85788989899A890E94EC12882383
S11312B02CF481E090E09C8B8B8B3FC020E03FEFCF
S11312C04FE757E46F85788989899A890E944B147E
S11312D018164CF520E030E040E251E46B857C8543
S11312E08D859E850E945014DC01CB01BC01CD018B
S11312F00E946A13DC01CB019C8B8B8B8B899C89AC
S1131300892B09F43BCF89E190E09E8B8D8B8D89ED
S11313109E890197F1F79E8B8D8B8B899C89019710
S11313209C8B8B8BEBCF6F85788989899A890E94F6
S11313306A13DC01CB019C8B8B8B8B899C89988FE6
S11313408F8B8F89988D0197F1F7988F8F8B16CF9C
S1131350CF93DF9300D0CDB7DEB789836A838981C9
S1131360882F90E08130910511F1823091051CF4B1
S1131370892B41F05BC08230910571F1039709F428
S113138040C054C08AE390E02AE330E0F9012081B0
S1131390622F2A81422F50E021E030E002C0220F68
S11313A0331F4A95E2F7262BFC0120833FC087E3D5
S11313B090E027E330E0F9012081622F2A81422F57
S11313C050E021E030E002C0220F331F4A95E2F7DB
S11313D0262BFC0120832AC084E390E024E330E040
S11313E0F9012081622F2A81422F50E021E030E070
S11313F002C0220F331F4A95E2F7262BFC012083FB
S113140015C081E390E021E330E0F9012081622FEF
S11314102A81422F50E021E030E002C0220F331F26
S11314204A95E2F7262BFC012083000000000F9070
S11314300F90DF91CF910895CF93DF9300D0CDB774
S1131440DEB789836A838981882F90E08130910592
S113145019F1823091051CF4892B41F05FC0823070
S1131460910581F1039709F443C058C08AE390E0E1
S11314702AE330E0F9012081622F2A81422F50E0D3
S113148021E030E002C0220F331F4A95E2F7209595
S11314902623FC01208342C087E390E027E330E069
S11314A0F9012081622F2A81422F50E021E030E0AF
S11314B002C0220F331F4A95E2F720952623FC0130
S11314C020832CC084E390E024E330E0F901208100
S11314D0622F2A81422F50E021E030E002C0220F27
S11314E0331F4A95E2F720952623FC01208316C07A
S11314F081E390E021E330E0F9012081622F2A8129
S1131500422F50E021E030E002C0220F331F4A9501
S1131510E2F720952623FC012083000000000F90B1
S11315200F90DF91CF910895CF93DF9300D01F9256
S1131530CDB7DEB789836A834B838981882F90E096
S113154081309105E1F1823091051CF4892B49F039
S1131550C0C08230910509F460C0039709F48BC0C0
S1131560B8C08B818823B1F48BE390E02BE330E0A7
S1131570F9012081622F2A81422F50E021E030E0DE
S113158002C0220F331F4A95E2F720952623FC015F
S113159020839FC08BE390E02BE330E0F9012081AE
S11315A0622F2A81422F50E021E030E002C0220F56
S11315B0331F4A95E2F7262BFC0120838AC08B81D6
S11315C08823B1F488E390E028E330E0F901208136
S11315D0622F2A81422F50E021E030E002C0220F26
S11315E0331F4A95E2F720952623FC01208371C01E
S11315F088E390E028E330E0F9012081622F2A811A
S1131600422F50E021E030E002C0220F331F4A9500
S1131610E2F7262BFC0120835CC08B818823B1F484
S113162085E390E025E330E0F9012081622F2A81EF
S1131630422F50E021E030E002C0220F331F4A95D0
S1131640E2F720952623FC01208343C085E390E044
S113165025E330E0F9012081622F2A81422F50E0F6
S113166021E030E002C0220F331F4A95E2F7262B17
S1131670FC0120832EC08B818823B1F482E390E0A7
S113168022E330E0F9012081622F2A81422F50E0C9
S113169021E030E002C0220F331F4A95E2F7209583
S11316A02623FC01208314C082E390E022E330E08F
S11316B0F9012081622F2A81422F50E021E030E09D
S11316C002C0220F331F4A95E2F7262BFC01208328
S11316D0000000000F900F900F90DF91CF910895BC
S11316E0CF93DF9300D0CDB7DEB789836A83898136
S11316F0882F90E08130910519F1823091051CF416
S1131700892B41F05FC08230910581F1039709F480
S113171043C058C089E390E0FC018081882F90E0A9
S11317202A81222F30E002C0959587952A95E2F709
S113173081709927892B11F480E045C081E043C072
S113174086E390E0FC018081882F90E02A81222F9B
S113175030E002C0959587952A95E2F78170992724
S1131760892B11F480E02FC081E02DC083E390E049
S1131770FC018081882F90E02A81222F30E002C072
S1131780959587952A95E2F781709927892B11F40D
S113179080E019C081E017C080E390E0FC01808103
S11317A0882F90E02A81222F30E002C095958795FA
S11317B02A95E2F781709927892B11F480E003C000
S11317C081E001C080E00F900F90DF91CF910895E8
S11317D00F931F93CF93DF93CDB7DEB7A0970FB6C8
S11317E0F894DEBF0FBECDBF84E390E023E0FC019C
S11317F0208385E390E023E0FC0120830E94B70D61
S113180086E790E00E94ED0D8DE00E94D20D86E502
S113181090E026E530E0F90120812B7FFC01208354
S113182000E210E081E290E0FC01108280E090E0B0
S1131830A0E0B0E49C01AD0160E070E080E890E4D9
S11318400E94F112DC01CB01BC01CD010E946A139C
S1131850DC01CB01F801808386E590E024E0FC0103
S1131860208380E090E0A0E2B1E489839A83AB8393
S1131870BC832BEA3AEA4AE250E469817A818B819B
S11318809C810E945014DC01CB018D839E83AF8325
S1131890B88789819A81AB81BC819C01AD01BC016F
S11318A0CD010E948012DC01CB0189879A87AB8726
S11318B0BC8720E030E040E85FE36D817E818F816A
S11318C098850E94EC1288231CF481E08D87B2C0B5
S11318D020E03FEF4FE757E469857A858B859C8547
S11318E00E944B1418160CF07BC020E030E04AE74D
S11318F054E469817A818B819C810E94F112DC011C
S1131900CB018E879F87A88BB98B20E030E04AEF0C
S113191054E46E857F85888999890E945014DC017E
S1131920CB018A8B9B8BAC8BBD8B20E030E040E8F5
S11319305FE36A897B898C899D890E94EC128823E4
S11319402CF481E090E09F8B8E8B3FC020E03FEF32
S11319504FE757E46A897B898C899D890E944B14DF
S113196018164CF520E030E040E251E46E857F85A6
S1131970888999890E945014DC01CB01BC01CD01F6
S11319800E946A13DC01CB019F8B8E8B0FC088EC05
S113199090E0998F888F888D998D0197F1F7998FB1
S11319A0888F8E899F8901979F8B8E8B8E899F89C3
S11319B0892B69F73FC06A897B898C899D890E943C
S11319C06A13DC01CB019F8B8E8B8E899F899B8F41
S11319D08A8F8A8D9B8D0197F1F79B8F8A8F2AC0FE
S11319E020E030E04FE753E46D817E818F8198855C
S11319F00E944B141816ACF469857A858B859C85F6
S1131A000E946A13DC01CB019D8F8C8F8C8D9D8D80
S1131A109F8F8E8F8E8D9F8D0197F1F79F8F8E8F65
S1131A200FC06D817E818F8198850E946A13DC01CD
S1131A30CB018D878D8588A388A18A95F1F788A32A
S1131A400000A0960FB6F894DEBF0FBECDBFDF91A5
S1131A50CF911F910F910895CF93DF93CDB7DEB748
S1131A6086E590E024EAFC012083000086E590E00E
S1131A70FC0180818823D4F7000081E290E0FC011E
S1131A808081882F90E0887F99270897B1F788E8AC
S1131A9090E00E94ED0D8DE00E94D20D0000DF91D8
S1131AA0CF910895CF93DF931F92CDB7DEB789838B
S1131AB083E290E02981FC01208386E590E024E81C
S1131AC0FC012083000086E590E0FC0180818823EE
S1131AD0D4F7000081E290E0FC018081882F90E03F
S1131AE0887F99274897B1F788E890E00E94ED0D28
S1131AF08DE00E94D20D00000F90DF91CF910895E8
S1131B00CF93DF931F92CDB7DEB7898383E290E052
S1131B102981FC01208386E590E024E8FC012083F0
S1131B20000086E590E0FC0180818823D4F7000062
S1131B3081E290E0FC018081882F90E0887F9927E2
S1131B408897B1F78DE00E94D20D00000F90DF91CD
S1131B50CF910895CF93DF93CDB7DEB786E590E0BC
S1131B6024E9FC0120830000DF91CF910895CF93F5
S1131B70DF93CDB7DEB780E490E0FC01108289E208
S1131B8090E028E0FC01208380E490E026E8FC015A
S1131B9020838AE290E028E1FC0120830000DF91A9
S1131BA0CF910895CF93DF931F92CDB7DEB789838A
S1131BB000008BE290E0FC018081882F90E080722D
S1131BC09927892BB1F38CE290E02981FC012083D1
S1131BD000000F90DF91CF910895CF93DF9300D051
S1131BE0CDB7DEB79A8389830BC089819A819C0122
S1131BF02F5F3F4F3A832983FC0180810E94D20DDD
S1131C0089819A81FC018081882379F700000F90F3
S1131C100F90DF91CF9108951F920F9200905F0073
S1131C200F921124CF93DF93CDB7DEB70000DF917D
S1131C30CF910F9000925F000F901F9018951F9204
S1131C400F9200905F000F9211242F938F939F9314
S1131C50AF93BF93EF93FF93CF93DF93CDB7DEB7EB
S1131C6082E590E022E8FC0120838091E1009091DC
S1131C70E200A091E300B091E4000196A11DB11D22
S1131C808093E1009093E200A093E300B093E4001A
S1131C900000DF91CF91FF91EF91BF91AF919F91A0
S1131CA08F912F910F9000925F000F901F901895C5
S1131CB01F920F9200905F000F9211242F938F9325
S1131CC09F93AF93BF93EF93FF93CF93DF93CDB7DE
S1131CD0DEB784E490E022E8FC0120838091E100F7
S1131CE09091E200A091E300B091E4000196A11D5F
S1131CF0B11D8093E1009093E200A093E300B093C0
S1131D00E4000000DF91CF91FF91EF91BF91AF917B
S1131D109F918F912F910F9000925F000F901F90D1
S1131D201895CF93DF9300D0CDB7DEB789836A834C
S1131D308981882F90E0009721F0019709F449C028
S1131D4092C083E590E023E530E0F9012081277F0C
S1131D50FC01208383E590E023E530E0F901208154
S1131D602F7BFC01208383E590E023E530E0F9013B
S1131D702081287FFC0120838A818823C1F483E5A4
S1131D8090E023E530E0F90120812360FC01208309
S1131D9082E590E022E8FC01208389E590E029E5D2
S1131DA030E0F90120812160FC01208378948A814C
S1131DB0813009F055C083E590E023E530E0F90176
S1131DC020812260FC01208382E590E0FC011082E6
S1131DD047C085E490E025E430E0F9012081277FC5
S1131DE0FC01208385E490E025E430E0F9012081C2
S1131DF02F7BFC01208385E490E025E430E0F901A9
S1131E002081287FFC0120838A818823C1F485E412
S1131E1090E025E430E0F90120812360FC01208377
S1131E2084E490E022E8FC01208389E590E029E540
S1131E3030E0F90120812064FC01208378948A81B8
S1131E40813081F485E490E025E430E0F9012081DB
S1131E502260FC01208384E490E0FC01108202C033
S1131E60000001C0000000000F900F90DF91CF919F
S1131E700895CF93DF931F92CDB7DEB7898389810D
S1131E80882F90E0009719F0019731F00AC083E59C
S1131E9090E0FC01108205C085E490E0FC01108212
S1131EA0000000000F90DF91CF910895CF93DF934E
S1131EB000D000D01F92CDB7DEB789834A835B83FD
S1131EC06C837D838981882F90E0009719F00197B6
S1131ED019F143C060E080E00E94910E00008091FF
S1131EE0E1009091E200A091E300B091E4002A8126
S1131EF03B814C815D8182179307A407B50778F372
S1131F001092E1001092E2001092E3001092E400BB
S1131F1080E00E94390F22C060E081E00E94910EAF
S1131F2000008091E1009091E200A091E300B09163
S1131F30E4002A813B814C815D8182179307A407C9
S1131F40B50778F31092E1001092E2001092E300DA
S1131F501092E40081E00E94390F000000000F900D
S1131F600F900F900F900F90DF91CF910895CF9322
S1131F70DF93CDB7DEB78FE490E02FE430E0F901D2
S1131F8020812068FC0120838FE490E02FE430E07E
S1131F90F90120812062FC0120838FE490E02FE48A
S1131FA030E0F90120812F7BFC0120838FE490E055
S1131FB02FE430E0F90120812F7EFC0120838EE4A0
S1131FC090E02EE430E0F90120812F7EFC01208393
S1131FD08EE490E02EE430E0F9012081277FFC01BB
S1131FE020838FE490E02FE430E0F90120812D7FFD
S1131FF0FC0120838FE490E02FE430E0F90120819C
S11320002E7FFC0120838EE490E02EE430E0F90181
S113201020812E7FFC0120838EE490E02EE430E0CA
S1132020F90120812260FC0120838EE490E02EE4FB
S113203030E0F90120812B7FFC0120838CE490E0C7
S1132040FC01118210820000DF91CF910895CF939B
S1132050DF93CDB7DEB78EE490E02EE430E0F901F3
S113206020812E7FFC0120838EE490E02EE430E07A
S1132070F90120812D7FFC0120838EE490E02EE481
S113208030E0F90120812B7FFC0120838CE490E077
S1132090FC01118210820000DF91CF910895CF934B
S11320A0DF93CDB7DEB78CE490E0FC0180819181B1
S11320B0DF91CF910895CF93DF93CDB7DEB760E082
S11320C080E00E94A80961E080E00E941C0A0000F0
S11320D0DF91CF910895CF93DF93CDB7DEB740E082
S11320E060E080E00E94940A41E060E080E00E94A9
S11320F0940A41E050E060E070E080E00E94560FF6
S113210040E060E080E00E94940A000061E080E02A
S11321100E94700B8823D1F30E94B70F000061E086
S113212080E00E94700B8130D1F30E944F10CC01EB
S1132130A0E0B0E0BC01CD010E949913DC01CB0109
S113214026E933E44BE85CE3BC01CD010E94501462
S1132150DC01CB018093EE009093EF00A093F0009C
S1132160B093F1000E9427100000DF91CF910895F1
S1132170CF93DF93CDB7DEB7F89481E0DF91CF91B1
S11321800895CF93DF9300D0CDB7DEB79A838983C8
S1132190789400000F900F90DF91CF910895CF9322
S11321A0DF93CDB7DEB727970FB6F894DEBF0FBE27
S11321B0CDBF19821A821B821C821D82000086E315
S11321C090E0FC018081882F90E081709927892B11
S11321D0B1F71F820E94B8108E8364C01D8238C07C
S11321E088E390E028E330E0F90120812260FC01DB
S11321F02083000089819A81AB81BC81880F991F5B
S1132200AA1FBB1F89839A83AB83BC8388E390E0B6
S113221028E330E0F90120812D7FFC0120830000B8
S113222086E390E0FC018081882F90E081709927FB
S1132230892B59F089819A81AB81BC810196A11DBA
S1132240B11D89839A83AB83BC838D818F5F8D831A
S11322508D81883128F289819A81AB81BC81A05813
S113226089839A83AB83BC831D8216C088E390E084
S113227028E330E0F90120812260FC012083000082
S113228088E390E028E330E0F90120812D7FFC0110
S113229020838D818F5F8D838091E5009D819817C8
S11322A028F31E828E81882309F098CFCE010796E9
S11322B00E94C11089819A81AB81BC81BC01CD018E
S11322C027960FB6F894DEBF0FBECDBFDF91CF9136
S11322D00895CF92DF92EF92FF92CF93DF93CDB721
S11322E0DEB70E94CF10DC01CB01BC01CD010E94FE
S11322F09B136B017C018091EA009091EB00A0910B
S1132300EC00B091ED00BC01CD010E949B13DC01F7
S1132310CB019C01AD01C701B6010E947F12DC0113
S1132320CB01BC01CD01DF91CF91FF90EF90DF9005
S1132330CF900895EF92FF920F931F93CF93DF9363
S1132340CDB7DEB70E9469117B018C018091E60054
S11323509091E700A091E800B091E9009C01AD01E3
S1132360C801B7010E94F112DC01CB01BC01CD010F
S1132370DF91CF911F910F91FF90EF900895CF932C
S1132380DF9300D0CDB7DEB79A83898389819A81A0
S1132390019721F481E08093E50013C089819A813B
S11323A0039721F483E08093E5000BC089819A812F
S11323B0029721F482E08093E50003C081E08093DA
S11323C0E50088E390E028E330E0F90120812D7FE7
S11323D0FC0120830E94CF1000000F900F90DF912A
S11323E0CF910895CF93DF9300D000D0CDB7DEB75F
S11323F069837A838B839C8389819A81AB81BC8135
S11324008093E6009093E700A093E800B093E9007E
S113241000000F900F900F900F90DF91CF910895CF
S1132420CF93DF9300D000D0CDB7DEB769837A8332
S11324308B839C8389819A81AB81BC818093EA00E0
S11324409093EB00A093EC00B093ED0000000F908C
S11324500F900F900F90DF91CF9108950F931F93DA
S1132460CF93DF93CDB7DEB729970FB6F894DEBFCD
S11324700FBECDBF89834A835B836C837D830E83C8
S11324801F832887398787E390E027E330E0F90149
S113249020812260FC01208388E390E028E330E07F
S11324A0F90120812D7FFC01208387E390E027E35D
S11324B030E0F90120812E7FFC0120838981882F5F
S11324C090E00E94BF118A819B81AC81BD81BC01D7
S11324D0CD010E94F2118E819F81A885B985BC012E
S11324E0CD010E941012000029960FB6F894DEBFA9
S11324F00FBECDBFDF91CF911F910F91089550581A
S1132500BB27AA270E9497120C9411140E9403144B
S113251038F00E940A1420F039F49F3F19F426F48D
S11325200C9400140EF4E095E7FB0C94FA13E92FD5
S11325300E94221458F3BA17620773078407950799
S113254020F079F4A6F50C9444140EF4E0950B2EC7
S1132550BA2FA02D0B01B90190010C01CA01A001F1
S11325601124FF27591B99F0593F50F4503E68F14C
S11325701A16F040A22F232F342F4427585FF3CF8D
S1132580469537952795A795F0405395C9F77EF45E
S11325901F16BA0B620B730B840BBAF09150A1F0A7
S11325A0FF0FBB1F661F771F881FC2F70EC0BA0F2D
S11325B0621F731F841F48F4879577956795B795B5
S11325C0F7959E3F08F0B0CF9395880F08F09927B0
S11325D0EE0F9795879508950E94D61308F481E02D
S11325E008950E9405130C9411140E940A1458F0C3
S11325F00E94031440F029F45F3F29F00C94FA136D
S113260051110C9445140C9400140E94221468F384
S11326109923B1F3552391F3951B550BBB27AA2797
S113262062177307840738F09F5F5F4F220F331FD1
S1132630441FAA1FA9F335D00E2E3AF0E0E832D099
S113264091505040E695001CCAF72BD0FE2F29D09C
S1132650660F771F881FBB1F261737074807AB076E
S1132660B0E809F0BB0B802DBF01FF2793585F4FE3
S11326703AF09E3F510578F00C94FA130C944514EB
S11326805F3FE4F3983ED4F3869577956795B795C5
S1132690F7959F5FC9F7880F911D9695879597F9D0
S11326A00895E1E0660F771F881FBB1F6217730749
S11326B08407BA0720F0621B730B840BBA0BEE1F5E
S11326C088F7E09508950E946A136894B1110C94F8
S11326D0451408950E942A1488F09F5798F0B92F42
S11326E09927B751B0F0E1F0660F771F881F991F43
S11326F01AF0BA95C9F714C0B13091F00E9444148D
S1132700B1E008950C944414672F782F8827B85F9C
S113271039F0B93FCCF3869577956795B395D9F79A
S11327203EF490958095709561957F4F8F4F9F4FA4
S11327300895E89409C097FB3EF4909580957095B0
S113274061957F4F8F4F9F4F9923A9F0F92F96E9F9
S1132750BB279395F695879577956795B795F1116E
S1132760F8CFFAF4BB0F11F460FF1BC06F5F7F4F0B
S11327708F4F9F4F16C0882311F096E911C077231D
S113278021F09EE8872F762F05C0662371F096E826
S1132790862F70E060E02AF09A95660F771F881FF5
S11327A0DAF7880F9695879597F90895990F000899
S11327B0550FAA0BE0E8FEEF16161706E807F9070F
S11327C0C0F012161306E407F50798F0621B730BAA
S11327D0840B950B39F40A2661F0232B242B252B2B
S11327E021F408950A2609F4A140A6958FEF811DCE
S11327F0811D089597F99F6780E870E060E008956F
S11328009FEF80EC089500240A9416161706180604
S11328100906089500240A941216130614060506E0
S11328200895092E0394000C11F4882352F0BB0F71
S113283040F4BF2B11F460FF04C06F5F7F4F8F4FD4
S11328409F4F089557FD9058440F551F59F05F3F0F
S113285071F04795880F97FB991F61F09F3F79F0BE
S113286087950895121613061406551FF2CF469540
S1132870F1DF08C0161617061806991FF1CF8695C2
S11328807105610508940895E894BB2766277727A6
S1132890CB0197F908950E94D61308F48FEF089599
S11328A00E9463140C9411140E94031438F00E94C3
S11328B00A1420F0952311F00C94FA130C940014CC
S11328C011240C9445140E94221470F3959FC1F3B3
S11328D0950F50E0551F629FF001729FBB27F00DCA
S11328E0B11D639FAA27F00DB11DAA1F649F66271F
S11328F0B00DA11D661F829F2227B00DA11D621F6E
S1132900739FB00DA11D621F839FA00D611D221F27
S1132910749F3327A00D611D231F849F600D211D0B
S1132920822F762F6A2F11249F5750409AF0F1F08E
S113293088234AF0EE0FFF1FBB1F661F771F881FF7
S113294091505040A9F79E3F510580F00C94FA1322
S11329500C9445145F3FE4F3983ED4F38695779541
S11329606795B795F795E7959F5FC1F7FE2B880F9D
S1132970911D9695879597F90895AEE0B0E0E3EC44
S1132980F4E10C947E170D891E8986E08C831A83EA
S113299009838FEF9FE79E838D83AE01475E5F4F70
S11329A06F89788DCE0101960E94DF14EF81F8853E
S11329B0E00FF11F10822E96E4E00C949A17ABE01E
S11329C0B0E0E5EEF4E10C9470176C017B018A0130
S11329D0FC0117821682838181FFCCC1CE0101964E
S11329E03C01F6019381F70193FD859193FF819159
S11329F07F01882309F4BAC1853239F493FD8591A6
S1132A0093FF81917F01853229F4B60190E00E9401
S1132A10D616E7CF912C212C312CFFE1F315D8F0F9
S1132A208B3279F038F4803279F08332A1F4232D9B
S1132A3020611DC08D3261F0803369F4232D216043
S1132A4016C0832D8260382EE32DE4603E2E2AC00A
S1132A50F32DF8601DC037FC2DC020ED280F2A305F
S1132A6040F08E32B9F436FC81C1232D2064322E1D
S1132A7019C036FE06C08AE0989E200D1124922EBD
S1132A8011C0EAE02E9E200D1124222EF32DF062B7
S1132A903F2E08C08C3621F4832D8068382E02C066
S1132AA0883641F4F70193FD859193FF81917F016D
S1132AB08111B3CF982F9F7D9554933028F40C5FE8
S1132AC01F4F9FE399830DC0833631F0833771F034
S1132AD0833509F059C021C0F801808189830E5FD4
S1132AE01F4F88248394912C530113C02801F2E0D2
S1132AF04F0E511CF801A080B18036FE03C0692D31
S1132B0070E002C06FEF7FEFC5010E94CB164C014D
S1132B108201F32DFF773F2E16C0280122E0420EDA
S1132B20511CF801A080B18036FE03C0692D70E00D
S1132B3002C06FEF7FEFC5010E94C0164C01F32D58
S1132B40F0683F2E820133FC1BC0822D90E0881672
S1132B509906B0F4B60180E290E00E94D6162A9459
S1132B60F4CFF50137FC859137FE81915F01B60101
S1132B7090E00E94D61621102A9421E0821A91082E
S1132B808114910471F7E8C0843611F0893641F557
S1132B90F80137FE07C060817181828193810C5FE7
S1132BA01F4F08C060817181072E000C880B990BA0
S1132BB00E5F1F4FF32DFF763F2E97FF09C09095B0
S1132BC08095709561957F4F8F4F9F4FF0683F2E92
S1132BD02AE030E0A3010E941217882E861845C00F
S1132BE0853731F4232D2F7EB22E2AE030E025C024
S1132BF0932D997FB92E8F36C1F018F4883579F06A
S1132C00B5C0803719F0883721F0B0C0E92FE061F2
S1132C10BE2EB4FE0DC0FB2DF460BF2E09C034FEE1
S1132C200AC0292F2660B22E06C028E030E005C075
S1132C3020E130E002C020E132E0F801B7FE07C035
S1132C4060817181828193810C5F1F4F06C0608116
S1132C50718180E090E00E5F1F4FA3010E94121764
S1132C60882E8618FB2DFF773F2E36FE0DC0232DB0
S1132C702E7FA22E891458F434FE0BC032FC09C0F6
S1132C80832D8E7EA82E05C0B82CA32C03C0B82C8F
S1132C9001C0B92CA4FE0FC0FE01E80DF11D808116
S1132CA0803321F49A2D997EA92E09C0A2FE06C074
S1132CB0B394B39404C08A2D867809F0B394A3FC2A
S1132CC011C0A0FE06C0B21488F4280C922C9B18E4
S1132CD00EC0B21460F4B60180E290E00E94D616F1
S1132CE0B394F7CFB21418F42B1802C0982C212CEB
S1132CF0A4FE10C0B60180E390E00E94D616A2FEA6
S1132D0017C0A1FC03C088E790E002C088E590E00A
S1132D10B6010CC08A2D867859F0A1FE02C08BE260
S1132D2001C080E2A7FC8DE2B60190E00E94D616B5
S1132D30891438F4B60180E390E00E94D6169A9480
S1132D40F7CF8A94F301E80DF11D8081B60190E07C
S1132D500E94D6168110F5CF222009F442CEB60186
S1132D6080E290E00E94D6162A94F6CFF60186817E
S1132D70978102C08FEF9FEF2B96E2E10C948C17A2
S1132D80FC010590615070400110D8F78095909532
S1132D908E0F9F1F0895FC01615070400190011037
S1132DA0D8F7809590958E0F9F1F08950F931F93CA
S1132DB0CF93DF93FB01238121FD03C08FEF9FEFAE
S1132DC02CC022FF16C046815781248135814217C9
S1132DD0530744F4A081B1819D012F5F3F4F31839C
S1132DE020838C93268137812F5F3F4F378326833F
S1132DF014C08B01EC01FB010084F185E02D0995E1
S1132E00892BE1F6D80116968D919C91179701961E
S1132E1017969C938E931697CE01DF91CF911F91B5
S1132E200F910895FA01AA27283051F1203181F138
S1132E30E8946F936E7F6E5F7F4F8F4F9F4FAF4FBE
S1132E40B1E03ED0B4E03CD0670F781F891F9A1FD1
S1132E50A11D680F791F8A1F911DA11D6A0F711D85
S1132E60811D911DA11D20D009F468943F912AE091
S1132E70269F11243019305D3193DEF6CF01089579
S1132E80462F4770405D4193B3E00FD0C9F7F6CFAA
S1132E90462F4F70405D4A3318F0495D31FD405272
S1132EA0419302D0A9F7EACFB4E0A6959795879508
S1132EB077956795BA95C9F70097610571050895E7
S1132EC09B01AC010A2E0694579547953795279593
S1132ED0BA95C9F7620F731F841F951FA01D08952B
S1132EE02F923F924F925F926F927F928F929F9216
S1132EF0AF92BF92CF92DF92EF92FF920F931F9304
S1132F00CF93DF93CDB7DEB7CA1BDB0B0FB6F894B4
S1132F10DEBF0FBECDBF09942A88398848885F84F4
S1132F206E847D848C849B84AA84B984C884DF8065
S1132F30EE80FD800C811B81AA81B981CE0FD11D49
S1132F400FB6F894DEBF0FBECDBFED010895F8941F
S1052F50FFCFAD
S1132F52017E02800033D77646256420636D002506
S1132F62642067616D00434F44452D4E2D4C4F47FD
S1132F724943204932433A005900526570656174ED
S1132F826564205374617274204578652E0052651D
S1132F9263656976696E67204D52206461746120AD
S1132FA241434B2000526563656976696E67204D23
S10F2FB2522044617461204E41434B00E6
S9030000FC
